:100000005CC000007FC000007DC000007BC000001D
:1000100079C0000077C0000075C0000073C0000008
:1000200071C000006FC000006DC000006BC0000018
:1000300069C0000067C0000065C0000063C0000028
:1000400097C300005FC0000027C1000066C1000028
:1000500059C0000057C0000055C0000053C0000048
:1000600051C000004FC00000000000070002010066
:100070000003040600000000000000000102040864
:100080001020408001020408102001020408102002
:10009000040404040404040402020202020203032E
:1000A0000303030300000000250028002B000000CC
:1000B0000000240027002A00470211241FBECFEFB2
:1000C000D8E0DEBFCDBF11E0A0E0B1E0EEEFFAE096
:1000D00002C005900D92A831B107D9F711E0A8E14F
:1000E000B1E001C01D92AB3CB107E1F710E0CAEBF3
:1000F000D0E003C02297FE01FCD4C83BD107D1F762
:1001000026D0FBC47DCF61E08DE02FD440E855E2DE
:1001100060E070E088E191E03BC1CF93DF938EE037
:1001200006D3EC014AE050E0BC0188E191E0E7D25F
:100130006F9714F060E001C061E08DE04ED46AEF8B
:1001400070E080E090E088D3DF91CF910895A8D34C
:10015000DADFC6E8D1E0E1DF2097E9F3D7D0FBCFC3
:10016000FC0184859585FC01E05CFF4F2081318195
:10017000FC01EE5BFF4F80819181281B390B2F73AF
:100180003327C9010895FC0184859585FC01E05C55
:10019000FF4F40815181FC01EE5BFF4F2081318197
:1001A0004217530741F00190F081E02DE80FF91F4D
:1001B000208130E002C02FEF3FEFC9010895FC011C
:1001C00084859585FC01E05CFF4F40815181FC01F5
:1001D000EE5BFF4F208131814217530781F0A081F0
:1001E000B181A80FB91F8C91208131812F5F3F4FC2
:1001F0002F73332731832083282F30E002C02FEF65
:100200003FEFC9010895FC0181A1882329F0A48949
:10021000B5898C9186FFFBCF11A20895CF93DF9310
:10022000FC0126853785D901A05CBF4F8D919C913B
:10023000119701968F739927E901CE5BDF4F4881B3
:10024000598184179507D9F30D90BC91A02DA20F69
:10025000B31F6C93A685B785A05CBF4F11969C9386
:100260008E93A689B7892C9181E090E0078C02C01B
:10027000880F991F0A94E2F7282B2C9381E081A321
:100280000488F589E02D80818064808381E090E09E
:10029000DF91CF91089508951F920F920FB60F929C
:1002A00011242F933F934F938F939F93EF93FF933B
:1002B0008091C00082FD1CC04091C6008091BE01AB
:1002C0009091BF0101968F7399272091C0013091C1
:1002D000C1018217930771F0E091BE01F091BF0157
:1002E000E258FE4F40839093BF018093BE0102C04D
:1002F0008091C600FF91EF919F918F914F913F9117
:100300002F910F900FBE0F901F90189588E191E0EC
:1003100027DF892B09F0BFCF08951F920F920FB6E8
:100320000F9211242F933F938F939F93EF93FF93FB
:1003300020917A0130917B0180917C0190917D0127
:100340002817390731F48091C1008F7D8093C10057
:1003500014C0E0917C01F0917D01E65CFE4F2081AC
:1003600080917C0190917D0101968F7399279093E4
:100370007D0180937C012093C600FF91EF919F91B6
:100380008F913F912F910F900FBE0F901F90189556
:10039000CF92DF92EF92FF92CF93DF93EC016A014D
:1003A0007B01411581EE580761057105F1F0EC897B
:1003B000FD8981E090E008A002C0880F991F0A948F
:1003C000E2F7808360E079E08DE390E0A701960199
:1003D00035D3215031094109510956954795379533
:1003E0002795211580E1380790F0EC89FD8910826E
:1003F00060E874E88EE190E0A70196011FD32150D8
:100400003109410951095695479537952795E8894E
:10041000F9893083EA89FB89208319A2EE89FF8953
:10042000408181E090E09C010C8C02C0220F331FC0
:100430000A94E2F7422B4083EE89FF8940819C01B8
:100440000D8C02C0220F331F0A94E2F7422B408327
:10045000EE89FF8940819C010E8C02C0220F331F60
:100460000A94E2F7422B4083EE89FF8920810F8CAA
:1004700002C0880F991F0A94E2F780958223808337
:10048000DF91CF91FF90EF90DF90CF900895109281
:100490001B0110921A0188EE93E0A0E0B0E0809377
:1004A0001C0190931D01A0931E01B0931F018BE0CE
:1004B00091E090931901809318018EE791E0909359
:1004C0002501809324018AE391E090932701809392
:1004D000260185EC90E0909329018093280184EC1B
:1004E00090E090932B0180932A0180EC90E0909310
:1004F0002D0180932C0181EC90E090932F0180934B
:100500002E0182EC90E0909331018093300186ECD3
:1005100090E0909333018093320184E08093340122
:1005200083E08093350187E08093360185E08093F6
:10053000370181E0809338010895A0E0B0E0E2EA5D
:10054000F2E0A8C26C01EB017A01E60EF71E00E0B2
:1005500010E00BC06991D601ED91FC910190F08102
:10056000E02DC6010995080F191FCE15DF0591F77B
:10057000C801CDB7DEB7E8E0A9C26115710591F0F9
:10058000DB010D900020E9F7AD0141505109461BF8
:10059000570BDC01ED91FC910280F381E02D099570
:1005A0009C0102C020E030E0C9010895DC01ED911A
:1005B000FC910190F081E02D099508950F931F9310
:1005C000CF93DF93EC016DE0F1DF8C016AE0CE01A7
:1005D000EDDF9C01200F311FC901DF91CF911F91E9
:1005E0000F9108954F925F926F927F929F92AF9278
:1005F000BF92CF92DF92EF92FF920F931F93CF9310
:10060000DF93CDB7DEB7A1970FB6F894DEBF0FBE6C
:10061000CDBF5C016A017B01922E19A281E0821795
:1006200010F08AE0982E8E010F5D1F4F492C512C3F
:10063000612C712CC701B601A3019201FFD18C2D51
:10064000929E80191124015011098A3010F4805DA6
:1006500001C0895CF801808369017A01C114D10469
:10066000E104F10439F7B801C50187DFA1960FB69F
:10067000F894DEBF0FBECDBFDF91CF911F910F91D8
:10068000FF90EF90DF90CF90BF90AF909F907F90C2
:100690006F905F904F900895A0E0B0E0E1E5F3E047
:1006A000F9C1EC016A017B012115310541F4E881B2
:1006B000F9810190F081E02D642F09951AC02A304C
:1006C000310599F477FF10C06DE270DF8C0144278B
:1006D0005527BA014C195D096E097F092AE0CE0140
:1006E00081DF080F191F06C02AE0B701A601CE015D
:1006F00079DF8C01C801CDB7DEB7E8E0E7C10F9321
:100700001F93CF93DF93EC019A01AB01662757FD4E
:100710006095762FC1DF8C01CE0150DF9801280F44
:10072000391FC901DF91CF911F910F9108958E302C
:1007300008F08E5087702091060140E4249F9001BC
:100740001124822B80937C0080917A0080648093B6
:100750007A0080917A0086FDFCCF2091780030915C
:100760007900932F80E0AC01422B9A01C9010895D2
:100770001F920F920FB60F9211242F933F938F93D6
:100780009F93AF93BF938091C2019091C301A091B9
:10079000C401B091C5013091CA01232F2D5F2D37BF
:1007A00020F40196A11DB11D05C0232F2A570296E2
:1007B000A11DB11D2093CA018093C2019093C30172
:1007C000A093C401B093C5018091C6019091C70167
:1007D000A091C801B091C9010196A11DB11D8093DE
:1007E000C6019093C701A093C801B093C901BF91FE
:1007F000AF919F918F913F912F910F900FBE0F90CE
:100800001F9018950F931F939FB7F8940091C601FE
:100810001091C7012091C8013091C90186B5A89BEC
:1008200006C08F3F21F00F5F1F4F2F4F3F4F9FBFDD
:10083000322F212F102F0027080F111D211D311DD0
:1008400042E0000F111F221F331F4A95D1F7B80154
:10085000C9011F910F910895CF92DF92EF92FF92FD
:10086000CF93DF936B017C01CDDFEB010DC0CADFBD
:100870006C1B7D0B683E734038F081E0C81AD108CC
:10088000E108F108C851DC4FC114D104E104F104BE
:1008900071F7DF91CF91FF90EF90DF90CF900895A7
:1008A000789484B5826084BD84B5816084BD85B54B
:1008B000826085BD85B5816085BDEEE6F0E0808112
:1008C00081608083E1E8F0E0108280818260808333
:1008D000808181608083E0E8F0E0808181608083B6
:1008E000E1EBF0E0808184608083E0EBF0E08081E8
:1008F00081608083EAE7F0E080818460808380818A
:100900008260808380818160808380818068808331
:100910001092C1000895833069F028F48130A1F06D
:10092000823011F514C08630B1F08730C1F08430C8
:10093000D9F404C0809180008F7703C0809180003B
:100940008F7D80938000089584B58F7702C084B531
:100950008F7D84BD08958091B0008F7703C0809112
:10096000B0008F7D8093B0000895CF93DF9390E027
:10097000FC01E458FF4F4491FC01E057FF4F849184
:10098000882341F190E0880F991FFC01E255FF4F49
:1009900025913491D9018C559F4FFC0185919491FB
:1009A000C82FD92F9FB7F8948C91611106C040953C
:1009B00084238C938881842308C0623041F4242FDF
:1009C000209582238C938881842B888302C0842B7A
:1009D0008C939FBFDF91CF910895A1E0B0E0E2EF4B
:1009E000F4E05CC0282F30E0F901E859FF4F849112
:1009F000F901E458FF4F1491F901E057FF4F0491BA
:100A00000023C9F0882319F0698385DF6981E02F0D
:100A1000F0E0EE0FFF1FEC55FF4F85919491DC0144
:100A20009FB7F8948C91611103C01095812301C088
:100A3000812B8C939FBF2196E4E04CC0A1E21A2E3B
:100A4000AA1BBB1BFD010DC0AA1FBB1FEE1FFF1F72
:100A5000A217B307E407F50720F0A21BB30BE40BC2
:100A6000F50B661F771F881F991F1A9469F7609509
:100A70007095809590959B01AC01BD01CF010895C3
:100A80002F923F924F925F926F927F928F929F929E
:100A9000AF92BF92CF92DF92EF92FF920F931F938C
:100AA000CF93DF93CDB7DEB7CA1BDB0B0FB6F8943D
:100AB000DEBF0FBECDBF09942A88398848885F847D
:100AC0006E847D848C849B84AA84B984C884DF80EE
:100AD000EE80FD800C811B81AA81B981CE0FD11DD2
:100AE0000FB6F894DEBF0FBECDBFED010895EE0F37
:0E0AF000FF1F0590F491E02D0994F894FFCFBC
:100AFE000000CB01200001000000000E019D02B09D
:080B0E0000DF00C30003010039
:00000001FF
